{
  "_format": "hh-sol-artifact-1",
  "contractName": "WavePortal",
  "sourceName": "contracts/WavePortal.sol",
  "abi": [
    {
      "inputs": [],
      "stateMutability": "nonpayable",
      "type": "constructor"
    },
    {
      "inputs": [],
      "name": "getTotalWaves",
      "outputs": [
        {
          "internalType": "uint256",
          "name": "",
          "type": "uint256"
        }
      ],
      "stateMutability": "view",
      "type": "function"
    },
    {
      "inputs": [
        {
          "internalType": "address",
          "name": "walletAddress",
          "type": "address"
        }
      ],
      "name": "getUserWaves",
      "outputs": [
        {
          "internalType": "uint256",
          "name": "",
          "type": "uint256"
        }
      ],
      "stateMutability": "view",
      "type": "function"
    },
    {
      "inputs": [
        {
          "internalType": "address",
          "name": "",
          "type": "address"
        }
      ],
      "name": "userWaves",
      "outputs": [
        {
          "internalType": "uint256",
          "name": "",
          "type": "uint256"
        }
      ],
      "stateMutability": "view",
      "type": "function"
    },
    {
      "inputs": [],
      "name": "wave",
      "outputs": [],
      "stateMutability": "nonpayable",
      "type": "function"
    }
  ],
  "bytecode": "0x608060405234801561001057600080fd5b5061003c6040518060600160405280602581526020016109fc6025913961004160201b6102b21760201c565b6101c4565b6100dd816040516024016100559190610142565b6040516020818303038152906040527f41304fac000000000000000000000000000000000000000000000000000000007bffffffffffffffffffffffffffffffffffffffffffffffffffffffff19166020820180517bffffffffffffffffffffffffffffffffffffffffffffffffffffffff83818316178352505050506100e060201b60201c565b50565b60008151905060006a636f6e736f6c652e6c6f679050602083016000808483855afa5050505050565b600061011482610164565b61011e818561016f565b935061012e818560208601610180565b610137816101b3565b840191505092915050565b6000602082019050818103600083015261015c8184610109565b905092915050565b600081519050919050565b600082825260208201905092915050565b60005b8381101561019e578082015181840152602081019050610183565b838111156101ad576000848401525b50505050565b6000601f19601f8301169050919050565b610829806101d36000396000f3fe608060405234801561001057600080fd5b506004361061004c5760003560e01c80631e5c6023146100515780636cdca0ea146100815780636fe15b44146100b15780639a2cdc08146100bb575b600080fd5b61006b60048036038101906100669190610560565b6100d9565b60405161007891906106a0565b60405180910390f35b61009b60048036038101906100969190610560565b6100f1565b6040516100a891906106a0565b60405180910390f35b6100b961017f565b005b6100c3610267565b6040516100d091906106a0565b60405180910390f35b60016020528060005260406000206000915090505481565b600080600160008473ffffffffffffffffffffffffffffffffffffffff1673ffffffffffffffffffffffffffffffffffffffff1681526020019081526020016000205490506101766040518060400160405280601481526020017f5573657220257320686173202564207761766573000000000000000000000000815250848361034b565b80915050919050565b600160008082825461019191906106d7565b9250508190555060018060003373ffffffffffffffffffffffffffffffffffffffff1673ffffffffffffffffffffffffffffffffffffffff168152602001908152602001600020546101e391906106d7565b600160003373ffffffffffffffffffffffffffffffffffffffff1673ffffffffffffffffffffffffffffffffffffffff168152602001908152602001600020819055506102656040518060400160405280600d81526020017f2573206861732077617665642100000000000000000000000000000000000000815250336103ea565b565b60006102aa6040518060400160405280601781526020017f5765206861766520256420746f74616c20776176657321000000000000000000815250600054610486565b600054905090565b610348816040516024016102c691906105e0565b6040516020818303038152906040527f41304fac000000000000000000000000000000000000000000000000000000007bffffffffffffffffffffffffffffffffffffffffffffffffffffffff19166020820180517bffffffffffffffffffffffffffffffffffffffffffffffffffffffff8381831617835250505050610522565b50565b6103e583838360405160240161036393929190610632565b6040516020818303038152906040527f07c81217000000000000000000000000000000000000000000000000000000007bffffffffffffffffffffffffffffffffffffffffffffffffffffffff19166020820180517bffffffffffffffffffffffffffffffffffffffffffffffffffffffff8381831617835250505050610522565b505050565b6104828282604051602401610400929190610602565b6040516020818303038152906040527f319af333000000000000000000000000000000000000000000000000000000007bffffffffffffffffffffffffffffffffffffffffffffffffffffffff19166020820180517bffffffffffffffffffffffffffffffffffffffffffffffffffffffff8381831617835250505050610522565b5050565b61051e828260405160240161049c929190610670565b6040516020818303038152906040527f9710a9d0000000000000000000000000000000000000000000000000000000007bffffffffffffffffffffffffffffffffffffffffffffffffffffffff19166020820180517bffffffffffffffffffffffffffffffffffffffffffffffffffffffff8381831617835250505050610522565b5050565b60008151905060006a636f6e736f6c652e6c6f679050602083016000808483855afa5050505050565b60008135905061055a816107dc565b92915050565b60006020828403121561057257600080fd5b60006105808482850161054b565b91505092915050565b6105928161072d565b82525050565b60006105a3826106bb565b6105ad81856106c6565b93506105bd818560208601610769565b6105c6816107cb565b840191505092915050565b6105da8161075f565b82525050565b600060208201905081810360008301526105fa8184610598565b905092915050565b6000604082019050818103600083015261061c8185610598565b905061062b6020830184610589565b9392505050565b6000606082019050818103600083015261064c8186610598565b905061065b6020830185610589565b61066860408301846105d1565b949350505050565b6000604082019050818103600083015261068a8185610598565b905061069960208301846105d1565b9392505050565b60006020820190506106b560008301846105d1565b92915050565b600081519050919050565b600082825260208201905092915050565b60006106e28261075f565b91506106ed8361075f565b9250827fffffffffffffffffffffffffffffffffffffffffffffffffffffffffffffffff038211156107225761072161079c565b5b828201905092915050565b60006107388261073f565b9050919050565b600073ffffffffffffffffffffffffffffffffffffffff82169050919050565b6000819050919050565b60005b8381101561078757808201518184015260208101905061076c565b83811115610796576000848401525b50505050565b7f4e487b7100000000000000000000000000000000000000000000000000000000600052601160045260246000fd5b6000601f19601f8301169050919050565b6107e58161072d565b81146107f057600080fd5b5056fea26469706673582212207e3138e23d0ee7b66e6c5b100bbfe88b840dca85c8d96e3bab33ba79ad9bde6764736f6c63430008000033596f20796f2c204920616d206120636f6e747261637420616e64204920616d20736d617274",
  "linkReferences": {},
  "deployedLinkReferences": {}
}